:100000000C9409170C9433170C9433170C94331772
:100010000C9433170C9433170C9433170C94331738
:100020000C9433170C9498BB0C9433170C9433171F
:100030000C9433170C94B1690C9433170C94331748
:100040000C9433170C9448640C946EBD0C943317C5
:100050000C94BC400C94B2400C9433170C9433179E
:100060000C9433170C9433170C9433170C943317E8
:100070000C9433170C9433170C9433170C943317D8
:100080000C9433170C9433170C943317084AD73B4E
:100090003BCE016E84BCBFFDC12F3D6C74319ABD57
:1000A00056833DDA3D00C77F11BED9E4BB4C3E917B
:1000B0006BAAAABE000000803F05A84CCDB2D44E6A
:1000C000B93836A9020C50B9918688083CA6AAAA6C
:1000D0002ABE000000803F004E414E494E4954590F
:1000E000494E46CDCCCC3D0AD7233C17B7D1387703
:1000F000CC2B329595E6241FB14F0A000020410019
:1001000000C84200401C4620BCBE4CCA1B0E5AAE62
:10011000C59D7400407A10F35A00A0724E18090071
:1001200010A5D4E80000E87648170000E40B54025C
:100130000000CA9A3B000000E1F505000080969897
:1001400000000040420F000000A0860100000010E7
:100150002700000000E80300000000640000000029
:10016000000A00000000000100000000002C76D80A
:1001700088DC674F0823DFC1DFAE59E1B1B796E5F0
:10018000E3E453C63AE651997696E8E6C28426EB54
:10019000898C9B62ED407C6FFCEFBC9C9F40F2BA67
:1001A000A56FA5F490055A2AF75C936B6CF9676DFF
:1001B000C11BFCE0E40D47FEF520E6B500D0ED9054
:1001C0002E0300943577050080841E080000204E21
:1001D0000A000000C80C333333330F986E128311BA
:1001E00041EF8D2114893BE65516CFFEE6DB18D191
:1001F000844B381BF77C1D901DA4BBE42420328463
:10020000725E228100C9F124ECA1E53D27434F4DE8
:100210004D554E49434154494F4E00445259525551
:100220004E004552524F525300494E464F004543EF
:10023000484F004572726F722077726974696E67F9
:1002400020746F20454550524F4D210A000F150E66
:100250001216170E1303021A1401000E0C190DFFCB
:10026000180C040001627573793A2070617573652A
:100270006420666F7220696E7075740A006275730F
:10028000793A2070617573656420666F72207573AA
:1002900065720A00627573793A2070726F636573D4
:1002A00073696E670A002121204B494C4C20636121
:1002B0007573656420627920746F6F206D75636853
:1002C00020696E6163746976652074696D65202D9F
:1002D0002063757272656E7420636F6D6D616E64FC
:1002E0003A200053544F505045442E20005072691C
:1002F0006E7465722073746F7070656420647565C8
:1003000020746F206572726F72732E204669782098
:10031000746865206572726F7220616E64207573F7
:1003200065204D39393920746F207265737461729C
:10033000742E202854656D70657261747572652025
:1003400069732072657365742E2053657420697417
:100350002061667465722072657374617274696E6F
:1003600067290A004E6F20436865636B73756D20C3
:1003700077697468206C696E65206E756D62657250
:100380002C204C617374204C696E653A20004E6FCE
:1003900020436865636B73756D2077697468206CA2
:1003A000696E65206E756D6265722C204C61737488
:1003B000204C696E653A2000636865636B73756DE8
:1003C000206D69736D617463682C204C61737420B7
:1003D0004C696E653A20004C696E65204E756D6201
:1003E0006572206973206E6F74204C617374204CA9
:1003F000696E65204E756D6265722B312C204C61E3
:100400007374204C696E653A20004D3131300053D1
:10041000442072656164206572726F720A00506CCC
:1004200065617365205265736574005052494E547E
:1004300045522048414C5445440025533A20255309
:10044000004B494C4C45442E20005072696E746537
:10045000722068616C7465642E206B696C6C28294D
:100460002063616C6C6564210A006563686F3A0003
:100470004572726F723A0020496E76616C69642031
:100480006578747275646572200020746F6F206CDB
:100490006F6E6720657874727573696F6E20707205
:1004A0006576656E7465640A0020636F6C64206510
:1004B0007874727573696F6E2070726576656E748C
:1004C00065640A0047322F473320626164207061FF
:1004D00072616D65746572730A00536C6565702E88
:1004E0002E2E00436C69636B20746F205265737508
:1004F0006D652E2E2E004E6F204D6F76652E0045B9
:100500006E642066696C65206C6973740A004265CC
:1005100067696E2066696C65206C6973740A0028CF
:100520006E6F2066696C65290043757272656E7422
:100530002066696C653A20005344207072696E74BD
:10054000696E67206279746520004E6F7420534491
:10055000207072696E74696E670A002E0A00446525
:100560006C6574696F6E206661696C65642C2046E9
:10057000696C653A200046696C652064656C657439
:1005800065643A002569730025696D20256973004B
:100590002569682025696D20256973002569642017
:1005A0002569682025696D202569730025697920F2
:1005B000256964202569682025696D2025697300F7
:1005C0005072696E742074696D653A2000496E76C8
:1005D000616C69642050696E204D6F64650A006F1C
:1005E0006B006F6666002E02290222021B020D02BA
:1005F00044454255473A004D3131322053687574B5
:10060000646F776E004D31313320530020573A002C
:1006100042656420436F6F6C696E672E2E2E004218
:1006200065642048656174696E672E2E2E00456EE4
:100630006465722D35204F46462E004348414D4299
:1006400045525F54454D5045524154555245004D19
:100650004F54494F4E5F4D4F444553005448455207
:100660004D414C5F50524F54454354494F4E004109
:1006700055544F5245504F52545F53445F53544169
:100680005455530050524F4D50545F535550504F96
:10069000525400454D455247454E43595F504152D3
:1006A00053455200434153455F4C494748545F42CC
:1006B00052494748544E45535300544F47474C45C1
:1006C0005F4C494748545300534F46545741524595
:1006D0005F504F574552004255494C445F50455278
:1006E00043454E54004C4556454C494E475F4441A6
:1006F0005441005A5F50524F4245004155544F4CAF
:100700004556454C005052494E545F4A4F420050A6
:10071000524F4752455353004155544F5245504F45
:1007200052545F54454D5000564F4C554D45545210
:10073000494300454550524F4D0042494E415259A0
:100740005F46494C455F5452414E53464552005313
:10075000455249414C5F584F4E5F584F4646004600
:1007600049524D574152455F4E414D453A4D617298
:100770006C696E20322E302E352E33202847697456
:100780004875622920534F555243455F434F4445B6
:100790005F55524C3A68747470733A2F2F676974BE
:1007A0006875622E636F6D2F4D61726C696E46695C
:1007B000726D776172652F4D61726C696E20505257
:1007C0004F544F434F4C5F56455253494F4E3A3169
:1007D0002E30204D414348494E455F545950453ACB
:1007E000456E6465722D3520455854525544455226
:1007F0005F434F554E543A3120555549443A63654D
:100800006465326132662D343161322D34373438CB
:100810002D396231322D63353563363266333637E2
:1008200066660A002F2F20004D31343520533C6975
:100830006E6465783E206F7574206F662072616EFD
:1008400067652028302D31290A002052004163635A
:10085000656C65726174696F6E3A2050003F4A2082
:100860006F7574206F662072616E67652028302E68
:10087000303120746F20302E33290A004F46460055
:100880004F4E0020580020204D61783A2000200073
:1008900020204D696E3A2000536F667420656E64A7
:1008A00073746F70733A200046523A0020466C6FA2
:1008B000773A200050726F746563746564205069E4
:1008C0006E0A0020643A0020693A0020703A00491C
:1008D0006E76616C69642065787472756465720AFD
:1008E0000064697300656E0043290A0061626C65EB
:1008F0006420286D696E2074656D702000436F6CF4
:100900006420657874727564657320617265200077
:10091000486F6D65202573257325732046697273B2
:1009200074004F666673657473204170706C6965FE
:1009300064004572723A20546F6F20666172210024
:10094000546F6F206661722066726F6D20726566EB
:100950006572656E636520706F696E740A00454547
:1009600050524F4D204F4B0A00446F6E65207072FD
:10097000696E74696E672066696C650A004D373769
:10098000004D333100496E76616C6964206578747E
:1009900072756465720A004361703A00220A00654C
:1009A0006E7175657565696E672022006F6B005208
:1009B0006573656E643A200020573A00436F6F6C90
:1009C000696E672E2E2E0048656174696E672E2E43
:1009D0002E00452025530023646566696E6520441A
:1009E000454641554C545F004B6420004B69200044
:1009F0004B702000504944204175746F74756E65CA
:100A00002066696E6973686564212050757420746E
:100A10006865206C617374204B702C204B692061D9
:100A20006E64204B6420636F6E7374616E74732008
:100A300066726F6D2062656C6F7720696E746F20CF
:100A4000436F6E66696775726174696F6E2E680AAE
:100A500000504944204175746F74756E652066615D
:100A6000696C6564212074696D656F75740A005046
:100A70004944204175746F74756E65206661696CB8
:100A80006564212054656D706572617475726520AE
:100A9000746F6F20686967680A00204B643A200011
:100AA000204B693A2000204B703A20000A20436C0A
:100AB000617373696320504944200A002054753AD9
:100AC0002000204B753A2000206D61783A200020EC
:100AD0006D696E3A200020643A20002062696173DB
:100AE0003A2000504944204175746F74756E65203A
:100AF00073746172740A00504944204175746F74B4
:100B0000756E65206661696C6564212054656D7041
:100B10006572617475726520746F6F2068696768AB
:100B20000A00504944204175746F74756E652066E3
:100B300061696C6564212042616420657874727516
:100B4000646572206E756D6265720A004572723A54
:100B5000207574663820666F6E74206E6F7420691D
:100B60006E697469616C697A65642E004572723AC7
:100B7000207574663820666F6E74206E6F742069FD
:100B80006E697469616C697A65642E004572723AA7
:100B9000207574663820666F6E74206E6F742069DD
:100BA0006E697469616C697A65642E0046696C2EA1
:100BB000204469612E004520696E206D6DC2B3002E
:100BC0004D333033205531204525692053256900A8
:100BD000504944204175746F74756E65202A005029
:100BE00049442D44202A005049442D49202A0050D0
:100BF00049442D50202A00200820466163740020BB
:100C000008204D6178002008204D696E004F66660F
:100C1000004F6E004175746F74656D7000565472AC
:100C20006176204D696E00566D696E00566D617873
:100C3000204500566D6178205A00566D6178205924
:100C400000566D6178205800416D61782045004163
:100C50006D6178205A00416D6178205900416D61C5
:100C600078205800412D54726176656C00412D52F8
:100C700065747261637400416363656C004A756EEC
:100C80006374696F6E204465760045737465707394
:100C90002F6D6D005A73746570732F6D6D005973ED
:100CA000746570732F6D6D005873746570732F6D5C
:100CB0006D00416476616E63656420536574746988
:100CC0006E677300000C0D00FE07022603BC017F57
:100CD000FE08FE08FE05080806000040F0C88888E7
:100CE000987810050808060000C0F8888888888869
:100CF000F80505050600012030F830200508080633
:100D000000002070F820202020E00509090600FFDF
:100D10002070A8A8B888887020050606060001E0A3
:100D20008CEA8C8A0A0509090600FFF8A8888888D9
:100D30008888A8F8050A0A0600FE205050505088FE
:100D4000A8A8887003030306000340A040FFFFFF2C
:100D5000FFFFFFFFFFFFFFFFFFFFFFFFFFFFFFFFA3
:100D6000FFFFFF0000000605FF01070706020080E5
:100D7000808080800080030303060105A0A0A005F9
:100D8000060606000050F85050F850050909060004
:100D9000FF2070A8A07028A8702005070706000093
:100DA000C8C8102040989805070706000040A0A07A
:100DB00040A89068010303060205808080030909AA
:100DC0000601FF2040408080804040200309090642
:100DD00001FF80404020202040408005070706009A
:100DE0000020A8702070A82005050506000120201D
:100DF000F820200203030601FFC040800501010620
:100E00000003F8020202060100C0C0050707060041
:100E10000008101020404080050707060000708879
:100E200098A8C8887003070706010040C0404040EA
:100E300040E0050707060000708808102040F8050C
:100E40000707060000F80810300888700507070635
:100E5000000010305090F81010050707060000F849
:100E600080F008088870050707060000304080F011
:100E7000888870050707060000F808101020202059
:100E800005070706000070888870888870050707C6
:100E900006000070888878081060020505060100C9
:100EA000C0C000C0C00206060601FFC0C000C040AE
:100EB000800305050601012040804020050303064C
:100EC0000002F800F803050506010180402040807B
:100ED000050707060000708810202000200507077E
:100EE0000600007088B8A8B88070050707060000E3
:100EF000708888F8888888050707060000F0484849
:100F0000704848F0050707060000708880808088D8
:100F100070050707060000F04848484848F00507F4
:100F200007060000F88080F08080F80507070600BB
:100F300000F88080F0808080050707060000708838
:100F40008080988870050707060000888888F888E0
:100F50008888030707060100E04040404040E00564
:100F600007070600003810101010906005070706EC
:100F700000008890A0C0A0908805070706000080A8
:100F80008080808080F805070706000088D8A88840
:100F90008888880507070600008888C8A898888878
:100FA000050707060000708888888888700507078D
:100FB000060000F08888F0808080050707060000A2
:100FC00070888888A89068050707060000F0888860
:100FD000F0A09088050707060000708880700888D8
:100FE00070050707060000F82020202020200507B4
:100FF000070600008888888888887005070706002B
:1010000000888888885050200507070600008888D7
:101010008888A8A850050707060000888850205037
:1010200088880507070600008888502020202005B2
:101030000707060000F80810204080F80309090699
:1010400001FFE080808080808080E0050707060047
:1010500000804040201010080309090601FFE0202D
:10106000202020202020E0050303060005205088D2
:101070000501010600FEF803030306010580402078
:101080000505050600007008788878050707060042
:10109000008080F0888888F00505050600007080D3
:1010A0008088700507070600000808788888887817
:1010B0000505050600007088F0807005070706002A
:1010C00000304840E04040400507070600FE7088B9
:1010D00088887808700507070600008080F08888F7
:1010E00088880307070601004000C0404040E00434
:1010F00009090601FE10003010101010906005075D
:101100000706000080808890E090880307070601AA
:1011100000C04040404040E0050505060000D0A862
:10112000A8A8A8050505060000B0C8888888050598
:101130000506000070888888700507070600FEF025
:10114000888888F080800507070600FE78888888F0
:10115000780808050505060000B0C88080800505F0
:101160000506000078807008F005070706000020DB
:1011700020F820202018050505060000888888989A
:1011800068050505060000888888502005050506C5
:1011900000008888A8A85005050506000088502092
:1011A00050880507070600FE888888502040800583
:1011B0000505060000F8102040F80309090601FFA4
:1011C0002040404080404040200109090602FF8045
:1011D00080808080808080800309090601FF804034
:1011E0004040204040408005030306000248A8908C
:1011F000FF3F0043616E63656C00496E6974004D8A
:1012000034323800496E697469616C697A652045C9
:101210004550524F4D0046696C616D656E740054C7
:10122000656D706572617475726500537465707375
:101230002F6D6D004A65726B00416363656C65726A
:101240006174696F6E0056656C6F636974790053E1
:10125000657420486F6D65204F6666736574730012
:10126000436F6E66696775726174696F6E0042657F
:1012700064004E6F7A7A6C650046616E205370652B
:10128000656400436F6E66696775726174696F6E3D
:10129000004C6F61642053657474696E677300520B
:1012A0006573746F72652044656661756C74730054
:1012B00053746F72652053657474696E6773005060
:1012C0007265686561742041425320436F6E660009
:1012D0005072656865617420504C4120436F6E66A2
:1012E00000416476616E6365642053657474696E51
:1012F0006773004D61696E00313235003A20003568
:10130000003A20004245443A4550434F5320313083
:10131000304B0052756E6177617920576174636854
:101320003A204F4E004D61782054656D7000323781
:1013300035003A20004D696E2054656D700035000F
:101340003A200045313A204550434F532031303048
:101350004B005053550047656E65726963003A2033
:101360000050726F746F636F6C00312E30003A2042
:10137000004261756400313135323030003A20006E
:101380004D656C7A692028437265616C69747929AE
:10139000004578747275646572730031003A2000FC
:1013A000687474703A2F2F6D61726C696E66772E57
:1013B0006F726700456E6465722D350032303230D1
:1013C0002D30332D333100322E302E352E33004D5B
:1013D00061726C696E00546865726D6973746F72C6
:1013E0007300426F61726420496E666F00507269CB
:1013F0006E74657220496E666F004D61696E003FC4
:10140000004261636B0053746F70004D32310041D4
:101410007474616368204D65646961005072696E1F
:10142000742066726F6D204D65646961004D3232C3
:101430000052656C65617365204D656469610041AA
:10144000626F7574205072696E74657200436F6EBE
:1014500066696775726174696F6E0054656D706559
:10146000726174757265004D6F74696F6E005265BC
:1014700073756D65205072696E74004D65646961A5
:101480002052656C65617365640054756E65005328
:10149000746F70205072696E7400506175736520AE
:1014A0005072696E7400496E666F20536372656591
:1014B0006E003F005374617274205072696E740044
:1014C00043616E63656C005072696E740043616EB7
:1014D0006E6F7420656E74657220737562646972D4
:1014E0003A2000022E2E0001526566726573680074
:1014F0004D61696E004D6F74696F6E004D38340038
:1015000044697361626C65205374657070657273B1
:1015100000473238004175746F20486F6D65004D8B
:1015200061696E005072656865617420504C41209D
:10153000456E64005072656865617420504C4120AE
:1015400042656400507265686561742041425320B1
:1015500042656400507265686561742041425320A1
:10156000456E640054656D706572617475726500D6
:10157000436F6F6C646F776E00507265686561745D
:1015800020414253005072656865617420504C419F
:101590000046616E20537065656400426564004ECC
:1015A0006F7A7A6C65004D61696E00426162797391
:1015B000746570205A00466C6F770046616E205348
:1015C0007065656400426564004E6F7A7A6C6500F0
:1015D0005370656564004D61696E002568753A2534
:1015E000303268750025303268753A2530326875BA
:1015F00000256875642025303268753A25303268D8
:101600007500202020202020200020202020001FE6
:10161000E02010201020101020102020102010306A
:10162000300840048003001FE03FF03FF03FF01F10
:10163000E01FE03FF03FF03FF00FC0078003003FA6
:10164000FFF038007030FC3020FC10207810203083
:10165000102C00D02E31D02F7BD02F7BD02E31D02C
:101660002C00D020301020781020FC1030FC3038B6
:1016700000703FFFF03FFFF0380070318630238765
:10168000102787902F87D02F03D02030102078107C
:101690002078102030102F03D02F87D02787902359
:1016A00087103186303800703FFFF01FFFF81FFFB2
:1016B000F80410400208200208200410400820808E
:1016C0001041001041000820800410400000001F5D
:1016D000FFF81FFFF8F801800078480080004043C1
:1016E000C38CD070712492670841249E400849241D
:1016F000904048FBB3CEE0304D6564696120496E8F
:10170000736572746564005072696E742041626F13
:1017100072746564004D32350050617573652050F8
:1017200072696E740000005C4300005C4300009628
:1017300043000000000000000000000000290A0033
:101740002062797465733B20637263200053657473
:1017500074696E67732053746F7265642028004546
:101760004550524F4D206461746173697A652065FC
:1017700072726F722E0A00290A00206279746573F2
:101780003B2063726320002073746F726564207362
:10179000657474696E6773207265747269657665C5
:1017A000642028004572723A20454550524F4D2022
:1017B00043524300202863616C63756C61746564F7
:1017C00029210A0020213D2000454550524F4D203F
:1017D000435243206D69736D61746368202D202826
:1017E00073746F7265642920004572723A20454512
:1017F00050524F4D20496E646578002053697A65D8
:101800003A2000496E6465783A20004572723A20A9
:10181000454550524F4D2056657273696F6E0020DA
:101820004D61726C696E3D563736290A0045455048
:10183000524F4D2076657273696F6E206D69736DBE
:10184000617463682028454550524F4D3D00486102
:101850007264636F6465642044656661756C7420AE
:1018600053657474696E6773204C6F616465640AB4
:10187000000000FA430000FA430000A0400000C846
:10188000410000A0420000A042000048440000BA0D
:1018900042F4010000F4010000640000008813001D
:1018A000003B200020440020490020204D333031EF
:1018B0002050005049442073657474696E67733A10
:1018C0000020460020420020480020204D313435C1
:1018D0002053004D6174657269616C2068656174A4
:1018E000757020706172616D65746572733A002065
:1018F000204D323036205800486F6D65206F666687
:101900007365743A00204A0020530020204D323085
:1019100035204200416476616E6365643A20423C42
:101920006D696E5F7365676D656E745F74696D6513
:101930005F75733E20533C6D696E5F6665656472CA
:101940006174653E20543C6D696E5F7472617665AA
:101950006C5F66656564726174653E204A3C6A75B9
:101960006E635F6465763E002054002052002020A4
:101970004D323034205000416363656C6572617490
:10198000696F6E2028756E6974732F7332293A203F
:10199000503C7072696E745F616363656C3E205287
:1019A0003C726574726163745F616363656C3E2051
:1019B000543C74726176656C5F616363656C3E0074
:1019C00020204D3230312058004D6178696D756DA1
:1019D00020416363656C65726174696F6E20287560
:1019E0006E6974732F7332293A0020204D323033E0
:1019F0002058004D6178696D756D2066656564726B
:101A0000617465732028756E6974732F73293A00A9
:101A100053746570732070657220756E69743A0036
:101A200020204D3230302044300A0020204D32300A
:101A3000302044002044697361626C65640A00468A
:101A4000696C616D656E742073657474696E67731B
:101A50003A0020204D3134392043203B20556E6917
:101A6000747320696E2043656C736975730A002076
:101A7000286D6D29002020473231202020203B2076
:101A8000556E69747320696E206D6D00486F6D69C5
:101A90006E67204661696C6564006F70656E005406
:101AA0005249474745524544003A20007A5F6D69E4
:101AB0006E00795F6D617800785F6D6178005265C6
:101AC000706F7274696E6720656E6473746F7020D6
:101AD0007374617475730A0000005C4300005C431A
:101AE000000000000000A0410000A0410000804074
:101AF0005761726E696E673A20486F6D696E672034
:101B000042756D702044697669736F72203C203194
:101B10000A000202040000A0400000A040000000F3
:101B20004000005C4300005C43000096430101FF5D
:101B300024F4D43050C38E20C2A24017828B70117F
:101B4000127A910D816CD90AA861E108C75866071D
:101B5000615143061E4B5D05C145A7041A4111049E
:101B6000093D9803713931034036DB026533910238
:101B7000D4305402802E1D02632CEE01752AC5015B
:101B8000B028A001102781018F2564012B244B016F
:101B9000E0223401AC211F018D200D01801FFC00CB
:101BA000841EED00971DDF00B81CD200E61BC600A6
:101BB000201BBC00641AB200B219A8000A19A000C8
:101BC0006A189900D117910040178B00B516840050
:101BD00031167E00B31579003A157300C7146F00F3
:101BE00058146A00EE1366008813630025135E0024
:101BF000C7125B006C12570015125400C11151003E
:101C000070114F0021114B00D61049008D10470074
:101C10004610440002104200C00F4000800F3E00FA
:101C2000420F3C00060F3B00CB0E3800930E3700EE
:101C30005C0E3500270E3400F30D3200C10D31006B
:101C4000900D3000600D2E00320D2D00050D2C0082
:101C5000D90C2B00AE0C2900850C29005C0C270048
:101C6000350C27000E0C2600E80B2400C40B2400C2
:101C7000A00B23007D0B23005A0B2100390B210000
:101C8000180B2000F80A1F00D90A1E00BB0A1E000C
:101C90009D0A1D00800A1D00630A1C00470A1B00E4
:101CA0002C0A1B00110A1A00F7091A00DD09190095
:101CB000C4091900AB091900920917007B09180023
:101CC000630917004C091600360916002009160092
:101CD0000A091500F5081500E0081400CC081400E6
:101CE000B8081400A4081400900813007D0812001E
:101CF0006B0813005808120046081200340811003F
:101D0000230811001208110001081100F00710004B
:101D1000E0071000D0071000C0071000B0070F0048
:101D2000A107100091070E0083070F0074070F0032
:101D300065070E0057070E0049070E003B070D0010
:101D40002E070E0020070D0013070D0006070D00DB
:101D5000F9060C00ED060D00E0060C00D4060C00A0
:101D6000C8060C00BC060C00B0060C00A4060B0054
:101D700099060C008D060B0082060B0077060B00FF
:101D80006C060B0061060A0057060B004C060A00A1
:101D900042060A0038060A002E060A0024060A0037
:101DA0001A060A001006090007060A00FD050900C8
:101DB000F4050900EB050900E2050900D905090051
:101DC000D0050900C7050900BE050900B5050800D2
:101DD000AD050800A50509009C050800940508004C
:101DE0008C050800840508007C05080074050800BF
:101DF0006C050700650508005D050700560508002D
:101E00004E05070047050700400508003805070094
:101E1000310507002A050700230507001C050600F9
:101E2000160507000F050700080506000205070054
:101E3000FB040600F5040700EE040600E8040600B3
:101E4000E2040700DB040600D5040600CF04060008
:101E5000C9040600C3040600BD040600B70406005A
:101E6000B1040500AC040600A6040600A0040500A9
:101E70009B04060095040500900406008A040500F2
:101E800085040500800406007A0405007504050039
:101E9000700405006B04050066040500610405007C
:101EA0005C04050057040500520405004D040500BC
:101EB00048040500430405003E0404003A040500FC
:101EC00035040500300404002C0405002704040038
:101ED000230405001E0404001A040400160405006F
:101EE000110404000D0404000904050004040400A6
:101EF00000040400FC030400F8030400F4030400DD
:101F0000F0030400EC030400E8030400E40304000D
:101F1000E0030400DC030400D8030400D40304003D
:101F2000D0030400CC030400C8030300C50303006E
:101F300024F404D9201BC40C5C0E9804C4095F026D
:101F400065077101F405F900FB04B300480487003C
:101F5000C10369005803550003034500BE023A005F
:101F60008402310053022A002902250004022000C5
:101F7000E4011C00C8011900AF011700980114000A
:101F800084011300710110006101100051010E0065
:101F900043010D0036010B002B010B0020010B004B
:101FA000150109000C01090003010800FB000800ED
:101FB000F3000800EB000700E4000600DE00060066
:101FC000D8000600D2000600CC000500C7000500BE
:101FD000C2000500BD000400B9000400B500040003
:101FE000B1000400AD000400A9000400A500030036
:101FF000A20003009F0004009B0003009800030060
:102000009500020093000300900003008D00020081
:102010008B00030088000200860002008400030099
:10202000810002007F0002007D0002007B000200B0
:1020300079000200770001007600020074000200BF
:1020400072000100710002006F0002006D000100CB
:102050006C0002006A0001006900020067000100D4
:1020600066000100650001006400020062000100DA
:1020700061000100600001005F0002005D000100DE
:102080005C0001005B0001005A00010059000100E2
:1020900058000100570001005600010055000100E2
:1020A00054000100530000005300010052000100E1
:1020B00051000100500001004F0001004E000000DF
:1020C0004E0001004D0001004C0001004B000000DB
:1020D0004B0001004A0001004900010048000000D7
:1020E00048000100470001004600000046000100D2
:1020F00045000000450001004400010043000000CD
:1021000043000100420000004200010041000000C5
:1021100041000100400001003F0000003F000100BD
:102120003E0000003E0001003D0000003D000100B7
:102130003C0000003C0000003C0001003B000000AF
:102140003B0001003A0000003A00010039000000A5
:10215000390001003800000038000000380001009C
:102160003700000037000100360000003600000094
:102170003600010035000000350000003500010088
:10218000340000003400000034000100330000007F
:102190003300000033000100320000003200000074
:1021A0003200010031000000310000003100010068
:1021B0003000000030000000300001002F0000005F
:1021C0002F0000002F0000002F0001002E00000053
:1021D0002E0000002E0001002D0000002D00000048
:1021E0002D0000002D0001002C0000002C0000003C
:1021F0002C0000002C0001002B0000002B00000030
:102200002B0000002B0001002A0000002A00000023
:102210002A0000002A000100290000002900000017
:10222000290000002900000029000100280000000A
:1022300028000000280000002800000028000100FD
:1022400027000000270000002700000027000000F2
:1022500027000100260000002600000026000000E4
:1022600026000000260001002500000025000000D7
:1022700025000000250000002500000025000100C9
:1022800024000000240000002400000024000000BE
:1022900024000100230000002300000023000000B0
:1022A00023000000230000002300000023000100A1
:1022B0002200000022000000220000002200000096
:1022C0002200000022000100210000002100000087
:1022D000210000002100000021000000210000007A
:1022E000210001002000000020000000200000006C
:1022F000200000002000000020000000200000005E
:10230000200001001F0000001F0000001F0000004F
:102310001F0000001F0000001F0000001F00010040
:102320001E0000001E0000001E0000001E00000035
:10233000043700001E290000511B00005810000047
:1023400010090000CC0400007802000041010000E8
:1023500020436F756E7420583A0042656400453121
:1023600000626564002C2073797374656D2073744A
:102370006F7070656421204865617465725F4944BF
:102380003A200048656174696E67204661696C6532
:10239000640048656174696E67206661696C656494
:1023A00000544845524D414C2052554E41574159D9
:1023B00000546865726D616C2052756E6177617949
:1023C000004572723A204D415854454D50004D41E0
:1023D0005854454D50207472696767657265640092
:1023E0004572723A204D494E54454D50004D494E6C
:1023F00054454D5020747269676765726564004D7D
:10240000383420582059205A204500202F002042DF
:10241000403A0020403A005072696E742050617555
:102420007365640070012C0190012701B001220145
:10243000C0011D01F00118011002130130020E014C
:102440006002090190020401C002FF000003FA00CB
:102450004003F5008003F000D003EB002004E60009
:102460007004E100E004DC004005D700C005D200A4
:102470004006CD00D006C8008007C3003008BE006B
:10248000F008B900C009B400B00AAF00B00BAA0050
:10249000D00CA500000EA000500F9B00C0109600AD
:1024A0005012910000148C00C0158700B0178200F4
:1024B000B0197D00D01B7800001E730040206E0014
:1024C00090226900F024640040275F0090295A00A0
:1024D000E02B5500102E500020304B0010324600EB
:1024E000E033410090353C0010373700703832003F
:1024F000A0392D00B03A2800A03B2300603C1E000C
:10250000103D1900903D1400103E0F00703E0A006F
:10251000C03E0500003F0000403FFBFF803FF6FF4C
:10252000C03FF1FF7C3C3E5E2B3D3F2F5B5D3B2C73
:102530002A225C0043616E6E6F74206F70656E209E
:102540007375626469722000534420636172642071
:102550006F6B0A006F70656E526F6F7420666169F1
:102560006C65640A00766F6C756D652E696E6974B2
:10257000206661696C65640A00534420696E697461
:10258000206661696C0A004D3234004D32332025DB
:10259000730046696C652073656C65637465640AD5
:1025A000002053697A653A200046696C65206F7097
:1025B000656E65643A2000454E4420535542524FA3
:1025C0005554494E450A002220706F730022207036
:1025D0006172656E743A2200535542524F55544908
:1025E0004E452043414C4C207461726765743A2219
:1025F00000747279696E6720746F2063616C6C205F
:102600007375622D67636F64652066696C657320FE
:102610007769746820746F6F206D616E79206C65C6
:1026200076656C732E204D4158206C6576656C2064
:1026300069733A310A0057726974696E6720746F62
:102640002066696C653A20002E0A006F70656E2066
:102650006661696C65642C2046696C653A20006689
:102660007265736800646F696E67002066696C65E7
:102670003A20004E6F772000000021002400270040
:102680002A0000002200250028002B000000200066
:1026900023002600290002020202020202020404B0
:1026A00004040404040403030303030303030101F8
:1026B0000101010101010102040810204080010212
:1026C000040810204080010204081020408080404F
:1026D000201008040201000000010200090A0000A5
:1026E00000000403080700000000000000000000D4
:1026F00000000000000002FFFFFFFFEFFFFFFFFFF1
:10270000FFFFFFFFFFFFEFEFFFFFFFFFFFFFFFFFF9
:10271000FFE7DFFFFFFFFFFFFFFFFFFFE7DFFFFF39
:10272000FFFFFFFFFFFFFFE3DFFFFFFFFFFFFFFFF5
:10273000FFFFF3CFFFFFFFFFFFFFFFFFE1E1CFFF51
:10274000FFFFFFFFFFFE78000003DDFFFFFFFFFE3E
:10275000FF807E0001EEFFFFFFFFFE7DCFFC00004B
:10276000F77FFFFFFFFF8E060000007BBFFFFFFF2C
:10277000FFC0000000007DDFFFFFFFFFFC01FE0047
:10278000003EE7FFFFFFFFFFFFFC00031F73FFFF9B
:10279000FFFFFFFFF800018F81FFFFFFFFFFFFE05A
:1027A000000083F9FFFFFFFFFFFF00FC0000F0FFC8
:1027B000FFFFFFFFE00FFFC00000FFFFFFFFFE0372
:1027C000FFFFC00000FFFFFFFFFFFFFFF900000059
:1027D000FFFFFFFFFFFFFFFC0007C0FFFFFFFFFF42
:1027E000FFFFFF0007E0FFFFFFFFFFFFFFFFE00726
:1027F000F1FFFFFFFFFFFFFFFFFC07F9FFFFFFFFF8
:10280000FFFFFFFFFF03F9FFFFFFFFFFFFFFFFFFDA
:1028100083F9FFFFFFFFFFFFFFFFFFC3FFFFFFFF86
:10282000FFFFFFFFFFFFE1FFFFFFFFFFFFFFFFFFD6
:10283000FFF0BFFFFFFFFFFFFFFFFFFBF83FFFFFC2
:10284000FFFFFFFFFFFFF9F83FFFFFFFFFFFFFFF65
:10285000FF7EF0FFFFFFFFFFFFFFFFFF8E03FFFF85
:10286000FFFFFFFFFFFFFFE01FFFFFFFFFFFFFFF77
:10287000FFFFFFFFFFFFFFFFFFFFFFFFFFFFFFFF68
:10288000FFFFFFFFFFFFFFFFFFFF7FFFFFFFFF00D7
:10289000007FFFFFF87FFFFFFFFF80007FFFFFE06B
:1028A0007FFFFFFFFFC3FCFFFFFFF8FFFFFFFFFFFE
:1028B000C3FCFFFFFFF8FFFFFFFFFF87FDFFFFFFE8
:1028C000F1FFFFFFFFFF87FFFFFFFFF1FFFFFFFFAC
:1028D000FF0FE7F30FFC23FC3FFFFFFF0FEF800725
:1028E000F003F01E007FFE1FCF8187C787C70C0053
:1028F0007FFE001FC7C78FC79F0F0CFFFE001F87FB
:102900008F1F8F1F0F1FFFFC3F9F8F8F1F8E001E7B
:102910003FFFFC7F3F0F1E3F1E3FFE3FFFF87FFF44
:102920001F1C3F1C7FFC7FFFF8FFFF1E1C7E1C7FCF
:10293000FC7FFFF0FFCE3E3C7E3C7FB8FFFFF0FF08
:102940009E3C387C387E78FFFFE1FF3C7C787C78C9
:102950003CF1FFFFE1F8387878101801F1FFFF0033
:102960000060203C007C07807FFFFFFFFFFFFE1F11
:10297000FE1FFFFFFF687474703A2F2F6D61726C39
:10298000696E66772E6F726700322E302E352E33C9
:102990000001FFFFFFFFFFFFFFFFFFFFFFFFFF0F34
:1029A000FFFFFFFFFFFFFFFFFFFFFFFFFF1E000016
:1029B000000000000000000007FFFF3800000000DA
:1029C00000000000000003FFFF7000000000000096
:1029D0000000000001FFFF60000000000000000098
:1029E000000000FFFF600000000000000000000089
:1029F000007FFFC000000000000000007800003FE2
:102A0000FFC00FC0FC00000000007818001FFFC0CE
:102A10003FE1FF0000000000783C000FFFC07FF3A3
:102A2000FF8000000000783C0007FFC0FFFFFFC0F0
:102A300000000000783C0003FFC1F87F87E0000041
:102A4000000078000001FFC1F03F03E0000000003B
:102A500078000000FFC1E01E01E01F0003E0783CA9
:102A600003F07FC1E01E01E07FC00FF8783C07FC57
:102A70003FC1E01E01E1FFE01FFC783C0FFE1FC1DB
:102A8000E01E01E3FFF03FFE783C1FFE0FC1E01E99
:102A900001E3F3F83F3E783C3F3F07C1E01E01E70A
:102AA000E0FC7C1F783C3E1F07C1E01E01E7C07CB4
:102AB0007C0F783C3C0F03C1E01E01E7807C780F5F
:102AC000783C3C0F03C1E01E01E7803C7800783C75
:102AD0003C0F03C1E01E01E7803C7800783C3C0FCE
:102AE00003C1E01E01E7803C7800783C3C0F03C145
:102AF000E01E01E7C03C7800783C3C0F03C1E01EBB
:102B000001E3E03C78007C3C3C0F03C1E01E01E3A4
:102B1000FF3FF8007FBC3C0F03C1E01E01E1FF3F17
:102B2000F8003FBFFC0F03C1E01E01E0FF3FF800CB
:102B30001FBFFC0F03C1E01E01E07F3FF8000FBF85
:102B4000FC0F036000000000000000000000000017
:102B50000760000000000000000000000000067098
:102B60000000000000000000000000000E3800001F
:102B7000000000000000000000001C1E000000001B
:102B80000000000000000000780FFFFFFFFFFFFFC4
:102B9000FFFFFFFFFFFFF001FFFFFFFFFFFFFFFF52
:102BA000FFFFFFFF802020506C616E6E65724275E2
:102BB0006666657242797465733A200020467265D4
:102BC00065204D656D6F72793A2000436F6D7069B5
:102BD0006C65643A204D61792032332032303230D6
:102BE0000A00204C61737420557064617465643A06
:102BF00020323032302D30332D3331207C2041755E
:102C000074686F723A20287468697369736B6569B8
:102C10007468622C20456E6465722D35290A003275
:102C20002E302E352E330A004D61726C696E0020F5
:102C3000536F6674776172652052657365740A001C
:102C4000205761746368646F672052657365740A06
:102C5000002042726F776E206F7574205265736525
:102C6000740A002045787465726E616C2052657339
:102C700065740A00506F77657255700A007374614D
:102C800072740A006175746F25632E6700473238CD
:102C90005859004D31303031006572726F722077B3
:102CA000726974696E6720746F2066696C650A00CA
:102CB000446F6E6520736176696E672066696C6526
:102CC0002E0A004D323900456E6473746F707300C4
:102CD00025532025632025632025632025630020BC
:102CE0005A3A0020593A0020583A00656E647374CD
:102CF0006F7073206869743A20004D6F76652025E7
:102D0000736D6D00004D6F766520302E316D6D0056
:102D10004D6F766520316D6D004D6F7665203130D9
:102D20006D6D004D6F7665204178697300486F7452
:102D3000656E6420746F6F20636F6C6400457874F7
:102D40007275646572004D6F7665205A004D6F761E
:102D5000652059004D6F76652058005072696E7479
:102D60002066726F6D204D6564696100220A00550E
:102D70006E6B6E6F776E20636F6D6D616E643A205F
:102D80002200456E6465722D352052656164792E8E
:102D9000005072696E74696E672E2E2E00204500F9
:102DA000205A00205900204D393220580020746FDD
:102DB0006F206C6F6E6720657874727573696F6EC3
:102DC0002070726576656E7465640A0020636F6CAE
:102DD0006420657874727573696F6E2070726576A1
:102DE000656E7465640A002E0A006F70656E206659
:102DF00061696C65642C2046696C653A2000204549
:102E00003A00205A3A0020593A00583A0000B0D30C
:102E1000A8DA11241FBECFEFD0E4DEBFCDBF12E091
:102E2000A0E0B1E0EAE2F3ED01E00BBF02C00790E1
:102E30000D92A233B107D9F722E1A2E3B2E001C0BB
:102E40001D92AC3CB207E1F717E1C8E0D7E104C03E
:102E50002197FE010E94BDE8C730D107C9F70E9443
:102E6000ABD40C9489E90C9400002CEA35EC47E2D1
:102E70005EE36091A7037091A8038091A9039091EC
:102E8000AA030E947DE66093410D7093420D8093EA
:102E9000430D9093440D08952CEA35EC47E25EE330
:102EA0006091AB037091AC038091AD039091AE0340
:102EB0000E949CDF60933D0D70933E0D80933F0D0B
:102EC0009093400D08950C94D1200895CF93DF93F3
:102ED000EC01CB01BA010E943DDF2AE037ED43E26D
:102EE0005DE30E947DE620E030E0A9010E94A1E5BB
:102EF0000E94EAE6688379838A839B83DF91CF917E
:102F00000895CF93DF93EC01CB01BA010E943DDF1E
:102F100020E030E048EC52E40E947DE620E030E022
:102F2000A9010E94A1E5688379838A839B83DF914D
:102F3000CF910895CF93DF93EC01CB01BA010E94AA
:102F40003DDF20E030E048EC52E40E947DE620E0E6
:102F500030E0A9010E94A1E5688379838A839B837D
:102F6000DF91CF910895CF93DF93EC01CB01BA01AC
:102F70000E943DDF20E030E040E251E40E947DE627
:102F800020E030E0A9010E94A1E5688379838A836B
:102F90009B83DF91CF910895CF93DF93EC01CB0119
:102FA000BA010E943DDF2AE037ED43E25DE30E9473
:102FB0007DE620E030E0A9010E94A1E568837983E5
:102FC0008A839B83DF91CF910895CF93DF93EC01A8
:102FD000CB01BA010E943DDF20E030E0A9010E9450
:102FE000A1E5688379838A839B83DF91CF910895DC
:102FF000CF93DF93EC01CB01BA010E943DDF20E0CB
:1030000030E0A9010E94A1E5688379838A839B83CC
:10301000DF91CF910895CF93DF93EC01CB01BA01FB
:103020000E943DDF20E030E04AE754E40E947DE664
:1030300020E030E0A9010E94A1E5688379838A83BA
:103040009B83DF91CF910895CF93DF93EC01CB0168
:10305000BA010E943DDF20E030E0A9010E94A1E515
:103060000E94E5E679836883DF91CF910895CF933D
:10307000DF93EC01CB01BA010E943DDF29EC38EC73
:1030800048EC5EE30E947DE620E030E040E05FE354
:103090000E94A1E50E94EAE66883DF91CF9108953E
:1030A0008F929F92AF92BF92CF92DF92EF92FF9258
:1030B0006B017C0120E030E0A9010E9437DF87FD31
:1030C00099C067E177EB81E598E3A70196010E943B
:1030D000A1E56B017C0120E030E04AE754E40E9466
:1030E0009CDF4B015C0120E030E0A901C701B60183
:1030F0000E9437DF20E030E040EA50E487FF04C060
:1031000020E030E040EA50ECC501B4010E94A1E5A6
:1031100020E030E040E251E40E947DE60E94E5E6D6
:103120006B017C018BE2F7FE09C0F094E094D0942F
:10313000C094C11CD11CE11CF11C8DE280933F079F
:10314000C701B60120E137E240E050E00E94A1E86B
:103150008AE0882E912CA12CB12CCA01B901A501BD
:1031600094010E94A1E8605D60934007C701B60129
:1031700028EE33E040E050E00E94A1E8CA01B90126
:10318000A50194010E94A1E8605D60934107C70119
:10319000B60124E630E040E050E00E94A1E8CA0118
:1031A000B901A50194010E94A1E8605D6093420706
:1031B0008EE280934307C701B601A50194010E94E6
:1031C000A1E86B01CA01B901A50194010E94A1E81F
:1031D000605D6093440780E3C80EC09245078FE3AB
:1031E00097E0FF90EF90DF90CF90BF90AF909F90CF
:1031F0008F90089567E177EB81E598EB66CF0E94A9
:103200003DDF20E030E048EC52E40E947DE620E023
:1032100030E0A9010E94A1E543CF08958F929F92CB
:10322000AF92BF92CF92DF92EF92FF926B017C013F
:1032300020E030E0A9010E9437DF87FDA4C067E1EC
:1032400077EB81E598E3A70196010E94A1E56B0168
:103250007C0120E030E0A9010E9437DF87FF98C0A1
:10326000C701B601905820E030E048EC52E40E94DB
:103270009CDF20E030E040EA50E40E94A1E520E03D
:1032800030E040E251E40E947DE60E94E5E66B01F9
:103290007C0180E280933F0760E280E1C81687E20C
:1032A000D806E104F1048CF0C701B60120E137E251
:1032B00040E050E00E94A1E8CA01B9012AE030E0F4
:1032C00040E050E00E94A1E8605D6093400760E24A
:1032D00088EEC81683E0D806E104F1048CF0C7013B
:1032E000B60128EE33E040E050E00E94A1E8CA01B8
:1032F000B9012AE030E040E050E00E94A1E8605DC2
:103300006093410760E284E6C816D104E104F10449
:103310008CF0C701B60124E630E040E050E00E94A6
:10332000A1E8CA01B9012AE030E040E050E00E9483
:10333000A1E8605D609342078AE0882E912CA12C61
:10334000B12CC701B601A50194010E94A1E86B014F
:10335000CA01B901A50194010E94A1E8605D6093D2
:1033600043078EE28093440780E3C80EC09245076E
:103370008FE397E0FF90EF90DF90CF90BF90AF90FA
:103380009F908F90089567E177EB81E598EB5BCF95
:1033900020E030E048EC52E4C701B60168CF0E945B
:1033A0003DDF20E030E040E251E40E947DE620E095
:1033B00030E0A9010E94A1E531CF0895FC0184917C
:1033C0000895FC018081089511980000000087FD98
:1033D00052C0419800000000119A000000001198AE
:1033E0000000000086FD53C0419800000000119AC3
:1033F0000000000011980000000085FD46C04198C3
:1034000000000000119A0000000011980000000068
:1034100084FD39C0419800000000119A00000000AE
:1034200011980000000083FD2CC0419800000000AE
:10343000119A0000000011980000000082FD1FC0DA
:10344000419800000000119A00000000119800004F
:10345000000081FD12C0419800000000119A000098
:103460000000119800000000419800000000119A2F
:10347000000000000895419AADCF419AEDCF419AE6
:10348000E0CF419AD3CF419AC6CF419AB9CF419A62
:10349000ACCF089590E080E00895CF93DF93FB01D7
:1034A000D90190819130E9F09430A8F09450908344
:1034B0002D913C911197B9016F5F7F4F11967C93CD
:1034C0006E93420F531FEA0188838D919C918F3533
:1034D000910564F406C08C3539F49C5F9083943078
:1034E00039F7DF91CF9108958B3311F781E0808315
:1034F000F8CF90918905E92FF0E0ED5EF14F8083E0
:103500009F5F943040F49093890580910D078F5F01
:1035100080930D07089510928905F7CF282F909179
:10352000C502833021F495FD0FC094FD0FC0892F93
:1035300090E0B0E0A0E004C0B695A7959795879578
:103540002A95D2F78170089581E0089580E008956A
:103550000C94C47608950C94C47608950C94C476A3
:1035600008950C94C47608950C94646A08950C949C
:10357000646A08950C94646A08950C94646A0895CA
:103580000E943DDF20E030E0A9010E94A1E50E94F9
:10359000E5E6CB010C9468820895CF92DF92EF921A
:1035A000FF926B017C0120E030E0A9010E9437DF2F
:1035B00087FD27C067E177EB81E598E3A7019601D6
:1035C0000E94A1E56B017C0120E030E0A9010E948E
:1035D00037DF20E030E040E05FE387FF04C020E019
:1035E00030E040E05FEBC701B6010E94A1E50E9418
:1035F000E5E6CB010E946882FF90EF90DF90CF90CC
:10360000089567E177EB81E598EBD8CF0E943DDF25
:1036100020E030E0A9010E94A1E5BFCF0895CF923C
:10362000DF92EF92FF92CF93DF9300D000D0CDB71F
:10363000DEB70E943DDF20E030E048EC52E40E941B
:103640007DE620E030E0A9010E94A1E56B017C014C
:1036500020E030E0A9010E9437DF27E137EB41E5A8
:1036600058E387FF04C027E137EB41E558EBC7017A
:10367000B6010E94A1E569837A838B839C83CE0186
:1036800001960E942C810F900F900F900F90DF9168
:10369000CF91FF90EF90DF90CF9008950E943DDF93
:1036A00029EC38EC48EC5EE30E947DE620E030E057
:1036B00040E05FE30E94A1E50E94EAE6862F0C94B9
:1036C00001890895A4E0B0E0E8E6FBE10C94DCE8B1
:1036D0000E94EAE60E943BDF69837A838B839C83A6
:1036E000CE0101960E94A9802496E2E00C94F8E8AD
:1036F0000E943DDF2AE037ED43E25DE30E947DE674
:1037000020E030E0A9010E94A1E5DCCF0895CF922E
:10371000DF92EF92FF92CF93DF9300D000D0CDB72E
:10372000DEB76B017C0120E030E0A9010E9437DFA9
:1037300087FD1BC067E177EB81E598E3A701960160
:103740000E94A1E569837A838B839C83CE010196D5
:103750000E94A9800F900F900F900F90DF91CF9152
:10376000FF90EF90DF90CF90089567E177EB81E5D0
:1037700098EBE4CF0E943DDF2AE037ED43E25DE3C2
:103780000E947DE620E030E0A9010E94A1E5BFCFC4
:1037900008950E943DDF20E030E0A9010E94A1E5EC
:1037A000B6CF0895CF92DF92EF92FF92CF93DF933F
:1037B00000D000D0CDB7DEB76B017C0120E030E057
:1037C000A9010E9437DF87FD1BC067E177EB81E528
:1037D00098E3A70196010E94A1E569837A838B8310
:1037E0009C83CE0101960E946AB80F900F900F90B3
:1037F0000F90DF91CF91FF90EF90DF90CF900895E1
:1038000067E177EB81E598EBE4CF0E943DDF20E0B4
:1038100030E04AE754E40E947DE620E030E0A90170
:103820000E94A1E5BFCF0895B0E0A0E0EAE1FCE18D
:103830000C94D4E86B01E9014A3009F4AFC045317A
:1038400009F05FC0DB011296ED91FC91F2802681B8
:103850009781139A88E28A950000E9F7022F192FC1
:10386000BF2CB29420EFB22230E1A32EAF0C48E27D
:10387000E42EE80188EFA8DD8E2D8A950000E9F797
:10388000BFE1BF1508F479C08F2D807780689CDD7B
:103890008B2D9ADD8E2D8A950000E9F780E894DD66
:1038A00080E092DD8E2D8A950000E9F78AEF8CDDAD
:1038B0008E2D8A950000E9F7005F1F4F8881807F79
:1038C00083DD89918295807F7FDDC017D107B1F7B5
:1038D0008E2D8A950000E9F7F394E0E1BE0EFA1010
:1038E000C8CF1398D6011296CD91DC91CE010E94DB
:1038F000CDBD8111D8C1CDB7DEB7EAE00C94F0E8B8
:10390000EDC1FB0102811381423309F487C108F440
:103910008BC1463409F478C1473409F47BC14B3379
:1039200029F589812B81D80112966C9112971396F3
:103930004C91213009F4CEC1233009F098C138EF01
:10394000380F582F91E0431708F490E041E05317E7
:1039500008F040E031E0561708F430E0592F542BBE
:10396000352309F0ACC1942309F0A9C181E0CDB79A
:10397000DEB7EAE00C94F0E8B1C180EE8F0D80680C
:10398000807F22DD8F2D8295807F1EDD8E2D8A9592
:103990000000E9F780E818DD80E883CF0B9A1398E0
:1039A000399A4198099A119A139A88E28A950000E7
:1039B000E9F788E790E0CEE9DFE0FE013197F1F723
:1039C0000197D9F788EF00DD18E2812F8A95000072
:1039D000E9F780E2F9DC80E0F7DC812F8A950000CE
:1039E000E9F780E0F1DC80E8EFDC812F8A950000C8
:1039F000E9F780E0E9DC80E1E7DC812F8A950000CF
:103A0000E9F7CE010197F1F7CE010197F1F7CE0169
:103A10000197F1F7CE010197F1F7CE010197F1F788
:103A2000CE010197F1F7CE010197F1F7CE01019791
:103A3000F1F7CE010197F1F7CE010197F1F7CE0131
:103A40000197F1F7CE010197F1F7CE010197F1F758
:103A5000CE010197F1F72197F1F780E2B5DC80E420
:103A6000B3DC812F8A950000E9F780E2ADDC80E6C7
:103A7000ABDC1A950000E9F710E0D0E0C8E28D2F2A
:103A800080778068A1DC812F9FDC8C2F8A950000D5
:103A9000E9F780E899DC80E097DC8C2F8A950000BC
:103AA000E9F78AEF91DC8C2F8A950000E9F780E234
:103AB000119800000000419800000000119A0000D9
:103AC0000000119800000000419800000000119AC9
:103AD0000000000011980000000041980000000064
:103AE000119A0000000011980000000041980000A9
:103AF0000000119A00000000119800000000419899
:103B000000000000119A0000000011980000000061
:103B1000419800000000119A000000001198000078
:103B20000000419800000000119A00000000119868
:103B300000000000419800000000119A0000000001
:103B4000119800000000419800000000119A000048
:103B50000000119800000000419800000000119A38
:103B600000000000119800000000419800000000D3
:103B7000119A000000001198000000004198000018
:103B80000000119A00000000119800000000419808
:103B900000000000119A00000000119800000000D1
:103BA000419800000000119A0000000011980000E8
:103BB0000000419800000000119A000000001198D8
:103BC00000000000419800000000119A0000000071
:103BD0009C2F9A950000E9F7815009F069CF88EF92
:103BE000F3DB8C2F8A950000E9F7DF5F105FD0329E
:103BF00009F045CF80E0E8DB80ECE6DBCA95000009
:103C0000E9F7139881E0B3CED80115968C9188839B
:103C100081E0ADCEF80181818883FACFB901C80176
:103C20000E94B8BD81E0A3CE443171F0473109F064
:103C30009DCE1882F80182818983858181508A8393
:103C400083818B8381E093CED80115964C91159793
:103C500050E0440F551F70E060E016968D919C91E6
:103C60000E9421E9C8010E94E3BD81E080CE48178F
:103C700008F47CCE861708F479CEFA80E12CD12C9A
:103C8000243070F41DC0BE01C8010E94B8BD8981F6
:103C900098819D0D98838E0D8983FF0C09F466CE63
:103CA000F7FEF6CFF0CF4D8150E0440F551F70E086
:103CB00060E08E819F810E9421E981E058CEFA80E8
:103CC00030E0F901E858FE4FD0802C583E4FF90102
:103CD000E080E6CF58E0580F382F34CEB0E0A0E0B7
:103CE000E4E7FEE10C94D7E8EC01D62E1CAD0BAD59
:103CF0007C0184E0E80EF11CE98DFA8DC70109957D
:103D0000412F480F2D2D602FC7010E9471C19BAD1F
:103D1000890F8BAF81E090E0CDB7DEB7E7E00C9480
:103D2000F3E8B0E0A0E0E7E9FEE10C94D2E8EC01B2
:103D30008B017A018A859B858617970731F08881E8
:103D400099810E9453C01B870A87888599850196AF
:103D500001F50C81DA808E81D80EA880B980D5015A
:103D60005596ED91FC91C5010995080F10E0F701FA
:103D700021917F01211147C08E819F81810F911D6B
:103D80009F838E8390E080E0CDB7DEB7ECE00C94AB
:103D9000EEE8CE80DF80F701008110E0002321F102
:103DA000A880B980602FC5010E94ABC0D501519693
:103DB0001C9111954701BFEF8B1A9B0AF401819169
:103DC0004F01882351F0D50150969C91190F082F6F
:103DD000682FC5010E94ABC0F1CF003281F0F50120
:103DE00083899189890F180FC10ED11C28853985C7
:103DF0002C153D0508F0ADCF81E090E0C5CFD50191
:103E000050968C91F0CF402F6D2DC5010E9471C14D
:103E1000D80E180FACCFACE0B0E0E1E1FFE10C94BC
:103E2000D8E81091100E0091110E2091B1032111CC
:103E300012C04CE65BE0602F812F0E94C9C190E068
:103E400080E0180F1093100E0093110E99272C96F6
:103E5000E6E00C94F4E8E090DD0DF090DE0D29ED45
:103E60003DE03A832983212F30E03C832B83202FB0
:103E700030E03E832D8318861F827A8769871C86EF
:103E80001B869E012F5F3F4F4EED59E1BC01C701DC
:103E90000E9486A8B70189ED9DE00E9453C08F81E2
:103EA0009885CFCF8091B4029091B502009739F0F8
:103EB0004AE050E070E060E00C9463DD089560E05B
:103EC00070E0CB0108958091B4029091B502009703
:103ED00039F04AE050E070E060E00C9436DC089580
:103EE00060E070E0CB010895B0E0A0E0EAE7FFE118
:103EF0000C94DCE820E24F8158856E818D810E9410
:103F0000D7B7E2E00C94F8E863E972E084E690E069
:103F10000E944A8D6AEB72E084E690E00C944A8D30
:103F20000895882311F0F0CF089568EB71E084E1E3
:103F300090E00C944A8D0895CF930E94357B0E94A7
:103F40001A7CC82F882319F080E00E940D9F8C2FC7
:103F5000E8DFCF9108950E9463A6E3CF08950E9401
:103F60001A7CDFCF0895282F1092280780912E0702
:103F700090912F07A0913007B0913107B7FF08C08B
:103F800010922E0710922F071092300710923107CF
:103F90008091B403882331F080912E07809320070D
:103FA00010923E0780911B071816FCF4082E000C97
:103FB000990B821B910920912007022E000C330BD4
:103FC0002817390794F097FF02C090E080E08093B3
:103FD0002007092E000CAA0BBB0B80932E07909391
:103FE0002F07A0933007B0933107809120076623F5
:103FF000A9F090912107891714F48093210720914B
:104000002107022E000C330B2C5F3F4F482F082E48
:10401000000C550B241735071CF48450809321079E
:1040200008958091A50D9091A60D891B8F7051F474
:1040300080919D07813031F08091300F82FB88277D
:1040400080F9089581E008958F929F92AF92BF9278
:10405000EF92FF920F931F93CF93DF93EC018B01AD
:10406000E42EF22E8091D30D9091D40D8C179D07E4
:10407000C9F128E9C531D20709F03FC08D599248EE
:1040800071F40E9408BD6E517B4F8F4F9F4F60931C
:10409000A3037093A4038093A5039093A603D093E6
:1040A000D40DC093D30D30E020E000932E07109381
:1040B0002F072093300730933107E0922107F092C9
:1040C0001B07CD59D24821F41092B3031092A203DA
:1040D00082E08093520181E080933E071092B50305
:1040E00010922A07DF91CF911F910F91FF90EF90CF
:1040F000BF90AF909F908F90089522E8CD39D2075E
:1041000071F68551984919F0CDE9D2E8C8CF0E94DF
:1041100008BD8090A3039090A403A090A503B09045
:10412000A603681979098A099B0997FFEDCFC09109
:104130007C0577DF882341F3C770C73029F7C5E5D1
:10414000DCE5ADCFE091A203E63010F581E08E0F03
:104150008093A20340912E0750912F076091300762
:10416000709131079091210780911B0728E0E29F11
:10417000F0011124EE58FC4F2091D30D3091D40D55
:10418000318320834283538364837583968387833B
:10419000089520E040E070E060E08DE992E854CFBF
:1041A0000895E091A203EE2389F0E150E093A20389
:1041B00088E0E89FF0011124EE58FC4F6281738182
:1041C00027814681808191813FCF0895E2CF089574
:1041D000B0E0A0E0EEEEF0E20C94D4E8EC015B017C
:1041E0008A01FB01099587FD10C0C82ED12CF12C46
:1041F000E12C2196F801C082D182E282F382CE01C5
:10420000CDB7DEB7EAE00C94F0E8982F907E903CB2
:10421000A9F48F7190E0B0E0A0E06C017D0126E090
:10422000CC0CDD1CEE1CFF1C2A95D1F7CE010196AB
:10423000F50109958F73C82A2296DCCF982F907FBD
:10424000903E11F58F7090E0B0E0A0E06C017D0130
:1042500086E0CC0CDD1CEE1CFF1C8A95D1F7CE014C
:104260000196F50109958F73C82A96E0CC0CDD1CE8
:10427000EE1CFF1C9A95D1F7CE010296F501099527
:104280008F73C82A2396B6CF982F987F903F79F5E1
:10429000877090E0B0E0A0E06C017D01F6E0CC0C0E
:1042A000DD1CEE1CFF1CFA95D1F7CE010196F5013D
:1042B00009958F73C82AA6E0CC0CDD1CEE1CFF1CF0
:1042C000AA95D1F7CE010296F50109958F73C82AF8
:1042D000B6E0CC0CDD1CEE1CFF1CBA95D1F7CE016C
:1042E0000396F50109958F73C82A249683CF982FDA
:1042F0009C7F983FE1F5837090E0B0E0A0E06C0116
:104300007D0156E0CC0CDD1CEE1CFF1C5A95D1F74C
:10431000CE010196F50109958F73C82A66E0CC0C91
:10432000DD1CEE1CFF1C6A95D1F7CE010296F5014B
:1043300009958F73C82A76E0CC0CDD1CEE1CFF1C9F
:104340007A95D1F7CE010396F50109958F73C82AA6
:10435000E6E0CC0CDD1CEE1CFF1CEA95D1F7CE018B
:104360000496F50109958F73C82A259643CF982F97
:104370009E7F9C3F09F049C0817090E0B0E0A0E0D2
:104380006C017D0186E0CC0CDD1CEE1CFF1C8A95C7
:10439000D1F7CE010196F50109958F73C82A96E0F1
:1043A000CC0CDD1CEE1CFF1C9A95D1F7CE010296B9
:1043B000F50109958F73C82A26E0CC0CDD1CEE1C94
:1043C000FF1C2A95D1F7CE010396F50109958F734D
:1043D000C82A36E0CC0CDD1CEE1CFF1C3A95D1F748
:1043E000CE010496F50109958F73C82A46E0CC0CDE
:1043F000DD1CEE1CFF1C4A95D1F7CE010596F50198
:1044000009958F73C82A2696F5CE982F907C903800
:1044100041F4807C803869F42196CE01F50109953C
:10442000F8CF8E7F8D3F28F02196CE01F5010995BA
:10443000F8CFC12CD12C7601DDCEA4E0B0E0E3E2D0
:10444000F2E20C94DBE810E0AE014F5F5F4F6EEDDF
:1044500079E1BEDE49815A816B817C81452B462BF7
:10446000472B11F01F5FF0CF812F2496E3E00C94CF
:10447000F7E8A4E0B0E0EFE3F2E20C94DBE810E050
:10448000AE014F5F5F4F61EE79E1A2DE49815A8153
:104490006B817C81452B462B472B11F01F5FF0CFA2
:1044A000812F2496E3E00C94F7E89CE0899F802D0F
:1044B000112491E0980F909371032CE0280F209322
:1044C000490730E02E5F3F4F40910D0E4217130613
:1044D00019F014F080E0089520910F0E9217D0F794
:1044E000662341F08E5F0E9404BF809149078E5F72
:1044F0000E9404BF8091490790910D0E891750F3D7
:1045000020910F0E90917103291720F31092100E35
:104510008093110E81E0089520917003022E000C0B
:10452000330B8217130641F08093700364EC7CE038
:1045300089ED9DE00C9453C00895CF93DF93FC0167
:1045400025AD211104C021E025AF0E94EFBDC0912F
:10455000DB0DD091DC0DE0910A0EF0910B0E82E0A4
:104560000995E0910A0EF0910B0E81E0099530E07B
:1045700020E044E1BE0189ED9DE00E94EABD2CE00F
:104580003EE047E1BE0189ED9DE00E94EABDE09179
:104590000A0EF0910B0E80E00995DF91CF910895FE
:1045A000ACE0B0E0E6EDF2E20C94D8E86F3F7105C4
:1045B0008105910509F070F485ED9DE08FDBE091B8
:1045C000DD0DF091DE0D3196849190E02C96E6E0C1
:1045D0000C94F4E81091100E0091110E2091B1038B
:1045E00021110FC04CE85BE0602F812F0E94C9C1F0
:1045F00090E080E0180F1093100E0093110E992791
:10460000E5CFE090DD0DF090DE0D29ED3DE03A8341
:104610002983212F30E03C832B83202F30E03E8301
:104620002D8318861F822FEF3FEF3A8729871C863C
:104630001B869E012F5F3F4FAB01BC01C7010E944B
:10464000F4A7B70189ED9DE00E9453C08F81988542
:10465000D1CFA4E0B0E0EFE2F3E20C94D7E87C0124
:10466000062F142F112309F443C0AE014F5F5F4F93
:104670006EED79E1C701ACDD7C0169817A818B81C6
:104680009C81611571058105910591F1DD24DA9414
:10469000D10E6D3371058105910581F06E3771057D
:1046A0008105910559F06A3271058105910541F541
:1046B00065E470E080E090E073DF1D2D602F70E016
:1046C00089819A81AB81BC81CD97A105B105A9F4FF
:1046D00080E390E0680F791F072E000C880B990B80
:1046E0005FDF115029F0612F70E0C70194DB181BC8
:1046F000812F2496E7E00C94F3E881E390E0EACF81
:104700004FDF1D2DAFCF6FEF7FEF85CB0895ACE06E
:10471000B0E0EDE8F3E20C94D8E81091100E0091AF
:10472000110E2091B103211112C04CE45BE0602F07
:10473000812F0E94C9C190E080E0180F1093100EE5
:104740000093110E99272C96E6E00C94F4E8E09083
:10475000DD0DF090DE0D29ED3DE03A832983212F18
:1047600030E03C832B83202F30E03E832D8318865E
:104770001F827A8769871C861B869E012F5F3F4FA9
:1047800041EE59E1BC01C7010E9486A8B70189ED3D
:104790009DE00E9453C08F819885CFCFEF92FF920A
:1047A0000F931F93CF937B01C42F890141FB662791
:1047B00060F97BDE8823A1F1C0FF19C00115110546
:1047C000B1F4C7013ADE25E130E0A901481B5109E7
:1047D000CA0157FD019695958795C82FC150C7FD11
:1047E00006C060E270E080E090E0DADEF7CF45E1FD
:1047F00060914A07C7012DDFC82FCC0FC80FCC0F1F
:104800000115110529F06C2F70E0C80180DFC81B6D
:10481000C73030F060E270E080E090E0C1DEF7CFBA
:10482000CF911F910F91FF90EF900895CF93DF9359
:1048300080915201882349F06091B7037091B803C9
:1048400030E020E041E081E0A9DF8091B2038111F6
:1048500018C0C091D30DD091D40D20E040E070E09D
:1048600060E086E194E2F0DB81E08093B2030E9495
:10487000A86A1092B20320E040E070E060E0CE0150
:10488000E3DBDF91CF9108956FEF7FEF40CF089585
:10489000B0E0A0E0EEE4F4E20C94D4E85C016B013B
:1048A000CCDDE82EC601E5DDF12C03E110E0081BAC
:1048B0001109C5E20E151F050CF4CFE18C2F90E015
:1048C0009C012E5F3F4F40910D0E4217130609F0D9
:1048D0006CF5099720910F0E281719063CF160918D
:1048E0004A071092100EC093110E45E1C501B1DECA
:1048F000D1E0C114D104A9F06AE370E080E090E057
:104900004FDE0E151F05A4F4C45F80910D0EC8176D
:1049100040F020910F0E4C2F4950550B24171506CF
:104920004CF4CDB7DEB7EAE00C94F0E8D0E0E1CF8C
:10493000DD23B9F3802F880F080F000F0093100EAE
:10494000C093110E60E270E080E090E029DEC601C5
:104950009BDFE7CF0F931F93CF93DF93FC01EB0116
:1049600080912E0790912F07A0913007B0913107C9
:10497000B7FF08C010922E0710922F071092300731
:10498000109231078091320790913307A09134073C
:10499000B091350740912E0750912F076091300755
:1049A0007091310784179507A607B70744F48093E1
:1049B0002E0790932F07A0933007B0933107809173
:1049C00052018823D9F060912E0770912F078091B2
:1049D00030079091310700913607109137072091E9
:1049E000380730913907600F711F821F931F099597
:1049F000BC0180913C0790913D074ADF80912907D7
:104A0000811108C080912B078823A1F18091520168
:104A1000882381F180913A0790913B070097B1F08C
:104A200040912E0750912F07609130077091310708
:104A300000913607109137072091380730913907D8
:104A4000400F511F621F731FFE010995E0912C0753
:104A5000F0912D07309741F080912B07811103C011
:104A600080912907811109958091290710922907C2
:104A7000811197DBDF91CF911F910F9108956BE02A
:104A800078E185E09CE166CF08956CEC77E18AEBF4
:104A90009BE160CF089568EF77E189EC9BE15ACF05
:104AA00008956AE977E18FEF98E154CF089561E8BE
:104AB00077E18FE09BE14ECF089566E677E188E7E6
:104AC0009BE148CF089563EB77E18FEC99E142CF0A
:104AD000089565EE77E186E09BE13CCF089564E2BE
:104AE00078E180EC9AE136CF089567E378E18EE4CF
:104AF0009BE130CF0895CF92DF92EF92FF920F9318
:104B0000CF93DF93982F862F6A017901692FCDDC2F
:104B1000882389F1C7010023E1F08FDCC82F43E12E
:104B2000481B60914A07C60194DDCC2321F1D82FA0
:104B3000DD0FD80FDD0F6AE370E080E090E030DD3C
:104B4000D73048F060E270E080E090E029DDD81BCB
:104B5000F7CF8FDCE3CF809149079C2F990F990FF6
:104B6000C91BCC0FC058C093100E8093110EC70103
:104B7000002349F0C8DDDF91CF910F91FF90EF90B6
:104B8000DF90CF90089580DEF6CFB0E0A0E0EBECB0
:104B9000F5E20C94D5E861E081E0E5D9C091210708
:104BA00085E0C82ECC0ED4E0DC1B13E01C1B82E099
:104BB000F82EFC1A81E0E82EEC1ABC2EB194C1113B
:104BC0002AC0809120078823B1F080915201882368
:104BD00059F081E090912007911180E024E042EBB0
:104BE0005CE06B2D0E94D7B7CF5FCC11E8CF85E09A
:104BF00080931B070BC080912907109229078823F7
:104C000021F3CFDA80913E078823F9F2CDB7DEB7E2
:104C1000E9E00C94F1E8C130B1F5809120078130D2
:104C2000E9F0809152018823F9F2DD24D394809138
:104C30002007813009F0D12C6091930C7091940C75
:104C40008091950C9091960C0E940E1900E09C01A9
:104C500048EA5CE06E2D8D2D4EDFC6CF809129078E
:104C6000109229078823E9F20E9412BB41EB5AE116
:104C700063E97CE088EA9CE00E9476BA80913E0776
:104C8000882379F2C3CFC23009F07FC0809120071A
:104C90008230E1F080915201882309F4A5CFDD2410
:104CA000D39480912007823009F0D12C6091970C29
:104CB0007091980C8091990C90919A0C0E940E1909
:104CC00000E09C014EE95CE06F2DC5CF8091290783
:104CD000109229078823F1F20E9412BB4EEA5AE192
:104CE00067E97CE08EE99CE00E9476BA80913E07FD
:104CF000882381F28BCF809120078330E1F080916F
:104D00005201882309F470CFDD24D39480912007C9
:104D1000833009F0D12C60919B0C70919C0C809198
:104D20009D0C90919E0C0E940E1900E09C0144E99C
:104D30005CE0612F90CF809129071092290788238A
:104D4000F1F20E9412BB4BEA5AE16BE97CE084E984
:104D50009CE00E9476BA80913E07882381F256CF6C
:104D600080912907109229078823C9F00E9412BB5D
:104D700048EA5AE16FE97CE08AE89CE00E9476BA52
:104D800080913E07882359F041CFC33009F4B3CF57
:104D9000C43009F029CF80912007843009F3809135
:104DA0005201882309F420CFDD24D3948091200779
:104DB000843009F0D12C60919F0C7091A00C8091EF
:104DC000A10C9091A20C0E940E1900E09C014AE8EF
:104DD0005CE06D2F40CFB0E0A0E0E1EFF6E20C9494
:104DE000D0E861E081E0BFD8C091210725E0722EB4
:104DF0007C0ED1E0DC1B6C2E6194C1112AC0809125
:104E000020078823B1F080915201882359F081E076
:104E100090912007911180E024E042EB5CE0662D48
:104E20000E94D7B7CF5FC711E8CF82E080931B07FE
:104E30000BC08091290710922907882321F3B1D94B
:104E400080913E078823F9F2CDB7DEB7EEE00C94EF
:104E5000ECE8C13039F7809120078130E1F0809192
:104E600052018823F9F211E080912007813009F086
:104E700010E060919E0770919F078091A00790912C
:104E8000A1070E94D21B00E09C014DE75CE06D2F62
:104E9000812F31DEC7CF80912907109229078823FF
:104EA000F1F220E030E04AE754E460919E0770910F
:104EB0009F078091A0079091A1070E949CDF20E0AE
:104EC00030E0A9010E94A1E520E030E040E85FE386
:104ED0000E94A0E50E94EAE6912C812C8FE3A82E87
:104EE00085E2B82E6B0113EFE12EFF24F39400E06E
:104EF00010E021E030E040E050E06EE977E08DE73F
:104F00009CE00E94FEB880913E07882309F4A7CF59
:104F10009BCFA8E0B0E0EFE8F7E20C94CCE861E0CA
:104F200081E021D8209121072F832E83822F8B5F50
:104F30008D8387E0282E922F221A86E0382E321A8F
:104F400085E0482E421A24E0291B288783E0782E2A
:104F5000791A82E0682E691A592E51948F81811135
:104F600015C080912007882309F46BC080915201FD
:104F7000882309F45CC081E090912007911180E0C2
:104F800024E042EB5CE0652D0E94D7B7C090830C13
:104F9000D090840CE090850CF090860C8091870C6A
:104FA0009091880CA091890CB0918A0C8C159D056C
:104FB000AE05BF0510F4D701C601C0907F0CD0909C
:104FC000800CE090810CF090820CBC01CD016C153E
:104FD0007D058E059F0510F4C701B6010E943BDFD9
:104FE0006B017C019F81913009F0A3C08091200763
:104FF0008130C1F1809152018823C9F011E0809184
:105000002007813009F010E06091B30C7091B40C6E
:105010008091B50C9091B60C0E94871B61E02E81A7
:10502000621B00E09C0147E75CE0812F64DD8F811B
:105030008F5F8F839D81891391CF88E080931B07B9
:105040000DC08091290710922907882309F48ECF7B
:10505000A8D880913E07882309F488CF2896E2E1FA
:105060000C94E8E88091290710922907882309F415
:10507000C1CF0E9412BB2AE037ED43E25DE3C701D6
:10508000B6010E949CDF20E030E0A9010E94A1E56A
:105090004B015C0120E030E040E05FE40E9437DF3C
:1050A00087FD05C0812C912CA12C5FE4B52E2AE050
:1050B00037ED43E25DE36091B30C7091B40C8091E5
:1050C000B50C9091B60C0E949CDF20E030E0A90165
:1050D0000E94A1E520E030E040E85FE30E94A0E507
:1050E0000E94EAE669837A838B839C83C501B401BD
:1050F0000E94E5E67B018C0121E0E21AF10801093A
:105100001109912C812C45E4A42E45E2B42EC980CE
:10511000DA8021E030E040E050E063EB7CE087E7BC
:105120009CE00E94FEB880913E07882309F462CF7C
:1051300095CF8F81823009F081C080912007823025
:10514000D9F080915201882309F471CF11E0809148
:105150002007823009F010E06091B70C7091B80C14
:105160008091B90C9091BA0C0E94871B00E09C01C1
:105170004DE65CE0662D59CF8091290710922907F2
:105180008823F9F20E9412BB60918B0C70918C0CF9
:1051900080918D0C90918E0C0E943BDF20E030E0DE
:1051A000A9010E94A1E54B015C0120E030E040E054
:1051B0005FE40E9437DF87FD05C0812C912CA12C74
:1051C0003FE4B32E20E030E0A9016091B70C70916C
:1051D000B80C8091B90C9091BA0C0E94A1E520E026
:1051E00030E048EC52E40E94A0E50E94EAE66983C0
:1051F0007A838B839C83C501B4010E94E5E67B0121
:105200008C0124E6E21AF10801091109912C812C84
:105210002BE4A22E25E2B22EC980DA8024E630E00B
:1052200040E050E067EB7CE08DE69CE00E94FEB839
:1052300080913E07882309F484CF10CF8F8183307B
:1052400009F04CC1809120078330D9F08091520140
:10525000882309F4ECCE11E080912007833009F017
:1052600010E06091BB0C7091BC0C8091BD0C9091D2
:10527000BE0C0E94871B00E09C0144E65CE0672DA9
:10528000D4CE80912907109229078823F9F20E9431
:1052900012BB2AE037ED43E25DE3C701B6010E948D
:1052A0009CDF20E030E0A9010E94A1E54B015C01F8
:1052B00020E030E040E05FE40E9437DF87FD05C07A
:1052C000812C912CA12C9FE4B92E2AE037ED43E2EA
:1052D0005DE36091BB0C7091BC0C8091BD0C909112
:1052E000BE0C0E949CDF20E030E0A9010E94A1E5F5
:1052F00020E030E040E85FE30E94A0E50E94EAE69B
:1053000069837A838B839C83C501B4010E94E5E69F
:105310007B018C0121E0E21AF10801091109912CAD
:10532000812C85E4A82E85E2B82EC980DA8021E0A0
:1053300030E040E050E06BEB7CE084E69CE00E94D3
:10534000FEB880913E07882309F480CF87CE8091F4
:1053500020078430E9F080915201882309F467CE58
:1053600011E080912007843009F010E060917F0CFB
:105370007091800C8091810C9091820C0E943BDF97
:105380000E94621B00E09C014DE55CE068854DCE0B
:1053900080912907109229078823E9F20E9412BB05
:1053A0000DEB1AE124E630E040E050E06FE77CE0EE
:1053B0008DE59CE00E94ADBA80913E07882359F2AA
:1053C0004DCE809120078530E9F0809152018823ED
:1053D00009F42DCE11E080912007853009F010E00E
:1053E0006091830C7091840C8091850C9091860C57
:1053F0000E943BDF0E94621B00E09C0146E55CE0EE
:10540000642D13CE80912907109229078823E9F291
:105410000E9412BB0AEB1AE124E630E040E050E0C3
:1054200063E87CE086E59CE00E94ADBA80913E078F
:10543000882359F213CE809120078630E9F08091BD
:105440005201882309F4F3CD11E0809120078630C2
:1054500009F010E06091870C7091880C8091890CA4
:1054600090918A0C0E943BDF0E94621B00E09C012D
:105470004FE45CE0632DD9CD809129071092290774
:105480008823E9F20E9412BB07EB1AE12AE030E020
:1054900040E050E067E87CE08FE49CE00E94ADBA19
:1054A00080913E07882359F2D9CD80912907109227
:1054B0002907882321F10E9412BB04EB1AE124E69C
:1054C00030E040E050E06BE87CE088E49CE00E9443
:1054D000ADBA80913E07882391F0C0CD2F81243052
:1054E00009F435CF253009F46CCF263009F4A3CF69
:1054F000273009F09CCD809120078730B1F2809150
:105500005201882309F493CD11E080912007873060
:1055100009F010E060918B0C70918C0C80918D0CD7
:1055200090918E0C0E943BDF0E94621B00E09C0168
:1055300048E45CE0622D79CDB0E0A0E0E2EAFAE276
:105540000C94D1E861E081E00E94B31FC091210773
:1055500065E0862E8C0ED6E0DC1B85E0D82EDC1AAA
:1055600084E0C82ECC1A83E0B82EBC1A82E0A82EA4
:10557000AC1A81E0982E9C1A7C2E7194C1112BC01C
:10558000809120078823B1F080915201882359F03F
:1055900081E090912007911180E024E042EB5CE0F3
:1055A000672D0E94D7B7CF5FC811E8CF87E08093FF
:1055B0001B070CC08091290710922907882321F32B
:1055C0000E94D12080913E078823F1F2CDB7DEB74B
:1055D000EDE00C94EDE8C130E1F5809120078130D9
:1055E000E1F0809152018823F1F211E080912007CF
:1055F000813009F010E06091A30C7091A40C8091AF
:10560000A50C9091A60C0E94CD1A00E09C0141E4EB
:105610005CE0692D812F6FDAC6CF80912907109247
:1056200029078823F1F20E9412BBE12C10ECF12E25
:1056300009E714E420E030E040E85FE363EA7CE05F
:1056400081E49CE00E9400BA80913E07882349F2E1
:10565000BDCFC23009F006C1809120078230D9F059
:1056600080915201882309F49ECF11E08091200798
:10567000823009F010E06091A70C7091A80C809125
:10568000A90C9091AA0C0E94CD1A00E09C014AE35B
:105690005CE06A2DBFCF80912907109229078823EB
:1056A000F9F20E9412BBE12C10ECF12E09E714E490
:1056B00020E030E040E85FE367EA7CE08AE39CE0DA
:1056C0000E9400BA80913E07882351F27FCF8091DB
:1056D00020078330D9F080915201882309F463CFE9
:1056E00011E080912007833009F010E06091AB0C4D
:1056F0007091AC0C8091AD0C9091AE0C0E94CD1AC3
:1057000000E09C0143E35CE06B2D84CF809129078E
:10571000109229078823F9F20E9412BBE12C10ECA9
:10572000F12E09E714E420E030E040E85FE36BEAA3
:105730007CE083E39CE00E9400BA80913E078823CE
:1057400051F244CF809120078430D9F080915201EA
:10575000882309F428CF11E080912007843009F0D4
:1057600010E06091AF0C7091B00C8091B10C9091F1
:10577000B20C0E94CD1A00E09C014CE25CE06C2D62
:1057800049CF80912907109229078823F9F20E94B6
:1057900012BBE12C10ECF12E09E714E420E030E01C
:1057A00040E85FE36FEA7CE08CE29CE00E9400BA94
:1057B00080913E07882351F209CF809120078530E0
:1057C000D9F080915201882309F4EDCE11E0809147
:1057D0002007853009F010E06091BF0C7091C00C7B
:1057E0008091C10C9091C20C0E94CD1A00E09C01E6
:1057F00047E25CE06D2D0ECF8091290710922907BA
:105800008823F9F20E9412BBE12C10ECF12E09E77B
:1058100014E420E030E0A9016FEB7CE087E29CE03B
:105820000E9400BA80913E07882359F2CFCE809122
:10583000290710922907882329F10E9412BBE12C25
:1058400010ECF12E09E714E420E030E0A90163EC4C
:105850007CE08DE19CE00E9400BA80913E078823A5
:1058600089F0B4CEC33009F432CFC43009F46ACF22
:10587000C53009F4A2CFC63009F095CE809120073B
:105880008630A9F280915201882309F48CCE11E070
:1058900080912007863009F010E06091C30C709170
:1058A000C40C8091C50C9091C60C0E94CD1A00E0EA
:1058B0009C014DE15CE06D2FADCEA6E0B0E0E3E6EB
:1058C000FCE20C94CCE861E081E00E94B31F709090
:1058D0002107672C25E0270D2D8388E087198E830B
:1058E00087E0582E571886E0482E471885E0382E56
:1058F000371884E0282E2718711082C08091200765
:10590000882309F46BC080915201882361F0662DD1
:10591000619581E090912007911180E024E042EBB5
:105920005CE00E94D7B72CEA35EC47E25EE3609179
:105930003D0D70913E0D80913F0D9091400D0E9464
:105940007DE66B017C01C092AB03D092AC03E09288
:10595000AD03F092AE032CEA35EC47E25EE36091D2
:10596000410D7091420D8091430D9091440D0E9424
:105970009CDF6093A7037093A8038093A90390937F
:10598000AA0325E07212A9C110924A07809120074C
:10599000853009F463C1809152018823B9F011E088
:1059A00080912007853009F010E06091390D7091E9
:1059B0003A0D80913B0D90913C0D0E94501800E0F3
:1059C0009C014FEE5BE0632D812F95D873948D8100
:1059D000781292CF89E080931B070EC0809129072F
:1059E00010922907882309F48ECF0E94D12080913C
:1059F0003E07882309F487CF2696E2E10C94E8E875
:105A000081E078122FC0909120079130C1F08091F1
:105A10005201882309F487CF61E0661981E0913053
:105A200009F080E09091EF0321E13CE0911102C088
:105A30002DE03CE001E044E15CE05DD874CF809172
:105A4000290710922907882311F38091EF038725F6
:105A50008093EF0383E08093520180913E07882377
:105A6000B1F2CACF22E072120DC2809120078230BB
:105A700009F469C0809152018823C1F011E080913E
:105A80002007823009F010E060912F017091300101
:105A900080913101909132010E94CD1A62E0661925
:105AA00000E09C0146E05CE0812F25D82CEA35EC33
:105AB00047E25EE360913D0D70913E0D80913F0D98
:105AC0009091400D0E947DE66093AB037093AC0310
:105AD0008093AD039093AE032CEA35EC47E25EE38E
